:040000005DEF00F0C0
:100008005B82FACF4DF0FBCF4EF0E9CF4FF0EACF4D
:1000180050F0E1CF51F0E2CF52F0D9CF53F0DACF20
:1000280054F0F3CF55F0F4CF56F0F6CF57F0F7CFA2
:1000380058F0F8CF59F0F5CF5AF09DB09EA005D0F2
:10004800B1EC2CF0DFEC2CF016D09DBA9EAA05D0AE
:10005800DCEC2CF0C7EC2AF00ED09DB89EA803D09B
:10006800ACEC2AF008D0A0BCA1AC03D0E8EC2CF092
:1000780002D07EEC16F05AC0F5FF59C0F8FF58C000
:10008800F7FF57C0F6FF56C0F4FF55C0F3FF54C042
:10009800DAFF53C0D9FF52C0E2FF51C0E1FF50C0A0
:1000A800EAFF4FC0E9FF4EC0FBFF4DC0FAFF5B926D
:1000B8001100D7EF27F00001ED6F000E0001E46F8B
:1000C8000001E1510001D8B48BEF0BF00001F851A9
:1000D800D8B48BEF0BF00001F9510001B45DD8A042
:1000E80016D1000E0001E66F000EE56F000E00014C
:1000F800C46F0A0EC36F73EC2AF0200E0001E76F7D
:100108000001E7510001D8B419D0030E37EC29F0EB
:10011800000180510001C327000181510001C4235F
:10012800D8900001C4310001E26F0001C331000121
:10013800806FE2C081F00001E707E2D7000E0001FE
:10014800C46F0A0EC36F73EC2AF0200E0001E86F2B
:100158000001E8510001D8B419D0020E37EC29F09B
:100168000001E5510001C3270001E6510001C42345
:10017800D8900001C4310001E26F0001C3310001D1
:10018800E56FE2C0E6F00001E807E2D70001E551BB
:1001980016EC2BF00001E26F0001E2510001866FBE
:1001A800876B000E0001B46F26EC2CF0740E000172
:1001B800D06F7B0E0001D16F000E0001D26F000ED0
:1001C8000001D36F0DEC27F03C0E0001D06F7E0EBE
:1001D8000001D16F000E0001D26F010E0001D36F34
:1001E8000DEC27F00A0E0001D56F010E0001D66F45
:1001F8000001AE5192EC23F07A0E0001D06F7D0E13
:100208000001D16F000E0001D26F020E0001D36F02
:100218000DEC27F080C0D5F081C0D6F0030E0001A8
:10022800D76F020E0001D86F46EC15F00C0E0001D6
:10023800D56F020E0001D66F0001865192EC23F0B3
:100248005E0E0001D06F7C0E0001D16F000E000120
:10025800D26F030E0001D36F0DEC27F0E1EC21F013
:10026800BDEC2CF00001AE6F0001AE510001D8A426
:1002780002D0050E07D0DF0E0001AE6505D00001E3
:10028800AE51CE0F0001AE6F000E0001C96F000124
:10029800AE51F9EC1CF0200E0101C76F80C0CAF006
:1002A80081C0CBF0040E0001CC6FA7EC11F0090E51
:1002B8000001C96F00018651F9EC1CF000F0270E0F
:1002C8000001C46F7D0E0001C56FC40E0001C66F2A
:1002D800010E0001C76F0C0E0001C86F44EC1EF040
:1002E800F2C0C3F00001C46B000E0001C66F030E1C
:1002F800C56F25EC21F00001C35100080001F2256B
:100308000001B36F080E0001B26F8BEF0BF0000114
:10031800F651D8B40AD00001B42B110E0001B26F07
:10032800010E0001DF6F8BEF0BF0000E0001B46FC0
:100338008BEF0BF0FFD70001ED510001D8A405D0D9
:100348000001DF510001D8B4120026EC2CF0B90EE0
:100358000001D06F7A0E0001D16F000E0001D26F3C
:10036800000E0001D36F0DEC27F0410E0001D06F95
:100378007B0E0001D16F000E0001D26F010E00014B
:10038800D36F0DEC27F05E0E0001D06F7C0E0001DC
:10039800D16F000E0001D26F030E0001D36F0DEC78
:1003A80027F0060E0001B26F12000001ED510001A6
:1003B800D8B430D026EC2CF0A80E0001D06F7A0EFD
:1003C8000001D16F000E0001D26F000E0001D36F43
:1003D8000DEC27F0970E0001D06F7A0E0001D16F57
:1003E800000E0001D26F010E0001D36F0DEC27F053
:1003F8005E0E0001D06F7C0E0001D16F000E00016F
:10040800D26F030E0001D36F0DEC27F00A0E000126
:10041800B26F12000001DF510001D8B41200000EC3
:100428000001B46F26EC2CF0A70E0001D06F7B0EF4
:100438000001D16F000E0001D26F000E0001D36FD2
:100448000DEC27F06D0E0001D06F7D0E0001D16F0D
:10045800000E0001D26F010E0001D36F0DEC27F0E2
:10046800C80E0001D06F790E0001D16F000E000197
:10047800D26F030E0001D36F0DEC27F0E1EC21F0F1
:10048800BDEC2CF00001AE6F0001AE510001D8A404
:1004980002D0050E07D0DF0E0001AE6505D00001C1
:1004A800AE51CE0F0001AE6F0C0E0001D56F010EDC
:1004B8000001D66F0001AE5192EC23F0000E00014E
:1004C800C96F0001AE51F9EC1CF0200E0101C76F95
:1004D80080C0CAF081C0CBF0040E0001CC6FA7EC3D
:1004E80011F0090E0001C96F00018651F9EC1CF0EA
:1004F80000F0070E0001B26F12000001ED5100017B
:10050800D8B411D0270E0001C46F7D0E0001C56F4D
:10051800C40E0001C66F010E0001C76F0C0E00016A
:10052800C86F44EC1EF00001DF510001D8B411D0AF
:100538006C0E0001C46F7E0E0001C56FC40E000171
:10054800C66F010E0001C76F0C0E0001C86F44ECA6
:100558001EF00001ED510001D8A405D00001DF51C3
:100568000001D8B4120026EC2CF0540E0001D06F14
:100578007E0E0001D16F000E0001D26F000E000147
:10058800D36F0DEC27F07A0E0001D06F7D0E0001BD
:10059800D16F000E0001D26F010E0001D36F0DEC78
:1005A80027F080C0D5F081C0D6F0030E0001D76FC8
:1005B800020E0001D86F46EC15F00C0E0001D56F45
:1005C800020E0001D66F0001865192EC23F0480E0E
:1005D8000001D06F7E0E0001D16F000E0001D26FB6
:1005E800010E0001D36F0DEC27F00C0E0001D56F42
:1005F800010E0001D66F0001AE5192EC23F0899CE8
:10060800080E0001B26F12000001E0510001D8B4D9
:100618003DD1640E0001C36F010E0001C46FF90ED5
:100628000001C56F7F0E0001C66FBCEC28F0000109
:10063800C3510001C411D8A404D0898C080E00014C
:10064800B26F640E0001C36F010E0001C46FA40EE7
:100658000001C56F7F0E0001C66F000E0001C86F54
:10066800060EC76F37EC24F00001C3510001C41116
:10067800D8A48BD0070E0001EC6F0001EC51010DDE
:10068800640EF324D96E010EF420DA6EDF500001F7
:10069800BE6F0001EC2B0001EC51010D640EF32438
:1006A800D96E010EF420DA6EDF500001BF6F000131
:1006B800EC2B200E0001BF19D8B415D00001EC5165
:1006C800010D640EF324D96E010EF420DA6EDF50AA
:1006D8000001C06F0001EC2B200E0001C019D8B436
:1006E80002D00001EC2B0001EC2B000E0001E96F99
:1006F8003F0E0001E96501D029D00001EC51010D40
:10070800640EF324D96E010EF420DA6E0001E9516B
:10071800010DA40EF324E16E010EF420E26EDFCF8A
:10072800E7FF0001E951010DA40EF324D96E010E73
:10073800F420DA6EDF50D8B403D00001EC2B03D0DC
:10074800400E0001E96F0001E92BD2D7898E899C00
:10075800FD0E0001D06F7A0E0001D16F000E00016E
:10076800D26F020E0001D36F0DEC27F0420E00018C
:10077800D06F7A0E0001D16F000E0001D26F030E08
:100788000001D36F0DEC27F078D0640E0001C36F21
:10079800010E0001C46FAB0E0001C56F7F0E000192
:1007A800C66F000E0001C86F060EC76F37EC24F045
:1007B8000001C3510001C411D8A410D0899C850E32
:1007C8000001D06F7B0E0001D16F000E0001D26FC7
:1007D800030E0001D36F0DEC27F04FD0640E00011B
:1007E800C36F010E0001C46F9D0E0001C56F7F0E1F
:1007F8000001C66F000E0001C86F060EC76F37EC08
:1008080024F00001C3510001C411D8A40FD0DA0E9E
:100818000001D06F790E0001D16F000E0001D26F78
:10082800030E0001D36F0DEC27F027D0640E0001F2
:10083800C36F010E0001C46F960E0001C56F7F0ED5
:100848000001C66F000E0001C86F060EC76F37ECB7
:1008580024F00001C3510001C411D8A40ED09E0E8B
:100868000001D06F7C0E0001D16F000E0001D26F25
:10087800030E0001D36F0DEC27F0FA0E0001E26FB2
:10088800580EE82EFED7E22FFCD700D00001ED511C
:100898000001D8A405D00001DF510001D8B412002E
:1008A80026EC2CF0B90E0001D06F7A0E0001D16F42
:1008B800000E0001D26F000E0001D36F0DEC27F07F
:1008C800410E0001D06F7B0E0001D16F000E0001B8
:1008D800D26F010E0001D36F0DEC27F05E0E000100
:1008E800D06F7C0E0001D16F000E0001D26F030E95
:1008F8000001D36F0DEC27F0060E0001B26F120055
:100908000001ED510001D8B430D026EC2CF03E0E99
:100918000001D06F7C0E0001D16F000E0001D26F74
:10092800000E0001D36F0DEC27F02E0E0001D06FE2
:100938007C0E0001D16F000E0001D26F010E000184
:10094800D36F0DEC27F05E0E0001D06F7C0E000116
:10095800D16F000E0001D26F030E0001D36F0DECB2
:1009680027F0010E0001B26F12000001DF510001F3
:10097800D8B4120026EC2CF0899E0D0E0001D06F21
:100988007C0E0001D16F000E0001D26F000E000135
:10099800D36F0DEC27F0D20E0001D06F7E0E000150
:1009A800D16F000E0001D26F010E0001D36F0DEC64
:1009B80027F0BE0E0001D06F000E0001D16F090EA6
:1009C8000001D26F010E0001D36F0DEC27F0590E14
:1009D8000001D06F7E0E0001D16F000E0001D26FB2
:1009E800020E0001D36F0DEC27F0A40E0001D06FAA
:1009F800010E0001D16F060E0001D26F020E000138
:100A0800D36F0DEC27F0AE0E0001D06F010E000180
:100A1800D16F000E0001D26F030E0001D36F0DECF1
:100A280027F00B0E0001B26F0001A7510001D8B4E6
:100A38001200000E0001A76F0F0E0001C46FA00E78
:100A4800C36F73EC2AF00A0E0001F26F1200000166
:100A5800ED510001D8A405D00001DF510001D8B440
:100A6800120026EC2CF0A80E0001D06F7A0E0001BF
:100A7800D16F000E0001D26F000E0001D36F0DEC94
:100A880027F0970E0001D06F7A0E0001D16F000E8B
:100A98000001D26F010E0001D36F0DEC27F05E0E3E
:100AA8000001D06F7C0E0001D16F000E0001D26FE3
:100AB800030E0001D36F0DEC27F00A0E0001B26F90
:100AC80012000001ED510001D8B443D026EC2CF0FF
:100AD800FC0E0001D06F7B0E0001D16F000E0001EB
:100AE800D26F000E0001D36F0DEC27F00001F65114
:100AF800D8B40FD0BE0E0001D06F7C0E0001D16FAC
:100B0800000E0001D26F020E0001D36F0DEC27F02A
:100B18000ED0DC0E0001D06F7C0E0001D16F000EEC
:100B28000001D26F020E0001D36F0DEC27F04E0EBC
:100B38000001D06F7C0E0001D16F000E0001D26F52
:100B4800030E0001D36F0DEC27F00E0E0001B26FFB
:100B580012000001DF510001D8B4120026EC2CF07D
:100B68003E0E0001D06F7C0E0001D16F000E000117
:100B7800D26F000E0001D36F0DEC27F000018651F3
:100B880000018711D8B418D080C0D5F081C0D6F044
:100B9800060E0001D76F010E0001D86F46EC15F064
:100BA80086C0D5F087C0D6F0060E0001D76F020EBA
:100BB8000001D86F46EC15F0020E0001B26F0B0E63
:100BC8000001C46FB80EC36F73EC2AF01200000165
:100BD800ED510001D8B422D026EC2CF0860E00018D
:100BE800D06F7A0E0001D16F000E0001D26F000E97
:100BF8000001D36F0DEC27F05E0E0001D06F7C0E64
:100C08000001D16F000E0001D26F030E0001D36FF7
:100C18000DEC27F00C0E0001B26F12000001DF513D
:100C28000001D8B412000001F651D8B412D0000E59
:100C38000001F66FDC0E0001D06F7C0E0001D16F51
:100C4800000E0001D26F020E0001D36F0DEC27F0E9
:100C58001200010E0001F66FBE0E0001D06F7C0E6F
:100C68000001D16F000E0001D26F020E0001D36F98
:100C78000DEC27F012000001ED510001D8B4BCD0F2
:100C880026EC2CF01F0E0001D06F7B0E0001D16FF7
:100C9800000E0001D26F000E0001D36F0DEC27F09B
:100CA8000E0E0001D06F7B0E0001D16F000E000107
:100CB800D26F010E0001D36F0DEC27F0810E0001F9
:100CC800D06F7F0E0001D16F000E0001D26F020EAF
:100CD8000001D36F0DEC27F0BC0E0001D06F7F0E22
:100CE8000001D16F0C0E0001D26F020E0001D36F0C
:100CF8000DEC27F05AD0D30E0001D06F7D0E000105
:100D0800D16F070E0001D26F020E0001D36F0DECF8
:100D180027F060D0E20E0001D06F7F0E0001D16F86
:100D2800070E0001D26F020E0001D36F0DEC27F001
:100D380051D0EE0E0001D06F7F0E0001D16F070E6B
:100D48000001D26F020E0001D36F0DEC27F042D0E4
:100D5800E60E0001D06F7F0E0001D16F070E000173
:100D6800D26F020E0001D36F0DEC27F033D0EA0EDC
:100D78000001D06F7F0E0001D16F070E0001D26F06
:100D8800020E0001D36F0DEC27F024D0F10E000104
:100D9800D06F7F0E0001D16F070E0001D26F020ED7
:100DA8000001D36F0DEC27F015D00001FA51000AAD
:100DB800D8B4A1D7010AD8B4ADD7030AD8B4B9D7E3
:100DC800010AD8B4C5D7070AD8B4D1D7010AD8B40C
:100DD800DDD791D74E0E0001D06F7C0E0001D16F88
:100DE800000E0001D26F030E0001D36F0DEC27F047
:100DF8000F0E0001B26F12000001DF510001D8B4DC
:100E08001200CD0E0001D06F7C0E0001D16F000ED4
:100E18000001D26F020E0001D36F0DEC27F01E0EF9
:100E28000001D06F7C0E0001D16F000E0001D26F5F
:100E3800030E0001D36F0DEC27F07E0E0001C46F86
:100E48007C0E0001C56F2FEC2BF0010E0001C46F62
:100E5800F40EC36F73EC2AF0FA0E0001E26F580E1D
:100E6800E82EFED7E22FFCD700D0FA0E0001E26F81
:100E7800580EE82EFED7E22FFCD700D0FA0E00015C
:100E8800E26F580EE82EFED7E22FFCD700D0350EC1
:100E98000001C46F7D0E0001C56F2FEC2BF0010E11
:100EA8000001C46FF40EC36F73EC2AF00D0E00013D
:100EB800B26F12000001E0510001D8B412001E0EFA
:100EC8000001F26F640E0001C36F010E0001C46FD0
:100ED800F90E0001C56F7F0E0001C66FBCEC28F04B
:100EE8000001C3510001C411D8A404D0898C0D0E8F
:100EF8000001B26F640E0001C36F010E0001C46FE0
:100F0800A40E0001C56F7F0E0001C66F000E000120
:100F1800C86F060EC76F37EC24F00001C3510001FB
:100F2800C411D8A496D0070E0001EB6F0001EB5155
:100F3800010D640EF324D96E010EF420DA6EDF5031
:100F48000001BE6F0001EB2B0001EB51010D640E97
:100F5800F324D96E010EF420DA6EDF500001BF6F62
:100F68000001EB2B200E0001BF19D8B415D00001E9
:100F7800EB51010D640EF324D96E010EF420DA6EE4
:100F8800DF500001C06F0001EB2B200E0001C019DB
:100F9800D8B402D00001EB2B000E0001EA6F3F0E1F
:100FA8000001EA6501D029D00001EB51010D640E62
:100FB800F324D96E010EF420DA6E0001EA51010D16
:100FC800A40EF324E16E010EF420E26EDFCFE7FFFA
:100FD8000001EA51010DA40EF324D96E010EF4208C
:100FE800DA6EDF50D8B403D00001EB2B03D0400EEB
:100FF8000001EA6F0001EA2BD2D7898E899CEC0E9A
:101008000001D06F7A0E0001D16F000E0001D26F7F
:10101800020E0001D36F0DEC27F0420E0001D06FD5
:101028007A0E0001D16F000E0001D26F030E00018D
:10103800D36F0DEC27F00A0E0001B26F0B0E000102
:10104800C46FB80EC36F73EC2AF0010E0001A76FCE
:1010580091D4640E0001C36F010E0001C46F9D0E90
:101068000001C56F7F0E0001C66F000E0001C86F3A
:10107800060EC76F37EC24F00001C3510001C411FC
:10108800D8A41AD0DA0E0001D06F790E0001D16F02
:10109800000E0001D26F030E0001D36F0DEC27F094
:1010A800899C060E0001B26F0F0E0001C46FA00EDE
:1010B800C36F73EC2AF032D0640E0001C36F010EC7
:1010C8000001C46FAB0E0001C56F7F0E0001C66F33
:1010D800000E0001C86F060EC76F37EC24F0000140
:1010E800C3510001C411D8A41CD0EC0E0001D06F6C
:1010F800790E0001D16F000E0001D26F030E0001BE
:10110800D36F0DEC27F0899C060E0001B26F0F0E0D
:101118000001C46FA00EC36F73EC2AF00A0E000121
:10112800F26FFA0E0001E26F580EE82EFED7E22F9A
:10113800FCD700D0120080C0D5F081C0D6F0060ED2
:101148000001D76F010E0001D86F46EC15F086C07C
:10115800D5F087C0D6F0060E0001D76F020E000149
:10116800D86F46EC15F00001ED510001D8A405D068
:101178000001DF510001D8B4120026EC2CF03E0E1D
:101188000001D06F7C0E0001D16F000E0001D26FFC
:10119800000E0001D36F0DEC27F02E0E0001D06F6A
:1011A8007C0E0001D16F000E0001D26F010E00010C
:1011B800D36F0DEC27F05E0E0001D06F7C0E00019E
:1011C800D16F000E0001D26F030E0001D36F0DEC3A
:1011D80027F0010E0001B26F12000001ED5100016D
:1011E800D8B4D5D026EC2CF0B80E0001D06F7B0E09
:1011F8000001D16F000E0001D26F000E0001D36F05
:101208000DEC27F0600E0001D06F7E0E0001D16F4B
:10121800000E0001D26F020E0001D36F0DEC27F013
:101228004E0E0001D06F7C0E0001D16F000E000140
:10123800D26F030E0001D36F0DEC27F0030E0001EF
:10124800B26F87D0C10E0001D06F7F0E0001D16F41
:101258000A0E0001D26F020E0001D36F0DEC27F0C9
:1012680096D0C50E0001D06F7F0E0001D16F0A0E17
:101278000001D26F020E0001D36F0DEC27F087D06A
:10128800C90E0001D06F7F0E0001D16F0A0E000158
:10129800D26F020E0001D36F0DEC27F078D0CD0E7F
:1012A8000001D06F7F0E0001D16F0A0E0001D26FCE
:1012B800020E0001D36F0DEC27F069D0D10E0001AA
:1012C800D06F7F0E0001D16F0A0E0001D26F020E9F
:1012D8000001D36F0DEC27F05AD0D50E0001D06F66
:1012E8007F0E0001D16F0A0E0001D26F020E0001BD
:1012F800D36F0DEC27F04BD0D90E0001D06F7F0EC5
:101308000001D16F0A0E0001D26F020E0001D36FE7
:101318000DEC27F03CD0DD0E0001D06F7F0E0001F0
:10132800D16F0A0E0001D26F020E0001D36F0DECCF
:1013380027F02DD0F50E0001D06F7F0E0001D16F80
:101348000A0E0001D26F020E0001D36F0DEC27F0D8
:101358001ED00001F451000AD8B474D7010AD8B4D9
:1013680080D7030AD8B48CD7010AD8B498D7070A0B
:10137800D8B4A4D7010AD8B4B0D7030AD8B4BCD714
:10138800010AD8B4C8D70F0AD8B4D4D75BD700019C
:10139800DF510001D8B41200050E0001FA6103D034
:1013A8000001FA2B6FD0000E0001FA6F6BD0090E06
:1013B8000001F96FD50E0001D06F7F0E0001D16FCB
:1013C800070E0001D26F020E0001D36F0DEC27F05B
:1013D8001200120E0001F96FE10E0001D06F7F0EAE
:1013E8000001D16F070E0001D26F020E0001D36F0A
:1013F8000DEC27F012001B0E0001F96FED0E000135
:10140800D06F7F0E0001D16F070E0001D26F020E60
:101418000001D36F0DEC27F01200360E0001F96FB2
:10142800E50E0001D06F7F0E0001D16F070E00019D
:10143800D26F020E0001D36F0DEC27F012006C0E74
:101448000001F96FE90E0001D06F7F0E0001D16F26
:10145800070E0001D26F020E0001D36F0DEC27F0CA
:1014680012000001F969F10E0001D06F7F0E000132
:10147800D16F070E0001D26F020E0001D36F0DEC81
:1014880027F012000001FA51000AD8B490D7010AD7
:10149800D8B49FD7030AD8B4AED7010AD8B4BDD7F9
:1014A800070AD8B4CCD7010AD8B4DBD780D7000153
:1014B800ED510001D8B425D00001F45180EC12F0B0
:1014C80026EC2CF0960E0001D06F7B0E0001D16F38
:1014D800000E0001D26F000E0001D36F0DEC27F053
:1014E8006E0E0001D06F7C0E0001D16F000E00015E
:1014F800D26F030E0001D36F0DEC27F0110E00011F
:10150800B26F0001DF510001D8B41200080E0001CB
:10151800F4610DD00001B105D8A406D0030E000176
:10152800F46502D0080E04D00001F42B8BD0000E15
:101538000001F46F87D0C10E0001D06F7F0E00014B
:10154800D16F0A0E0001D26F020E0001D36F0DECAD
:1015580027F01200C50E0001D06F7F0E0001D16F79
:101568000A0E0001D26F020E0001D36F0DEC27F0B6
:101578001200C90E0001D06F7F0E0001D16F0A0E54
:101588000001D26F020E0001D36F0DEC27F012009C
:10159800CD0E0001D06F7F0E0001D16F0A0E000141
:1015A800D26F020E0001D36F0DEC27F01200D10E9E
:1015B8000001D06F7F0E0001D16F0A0E0001D26FBB
:1015C800020E0001D36F0DEC27F01200D50E0001BA
:1015D800D06F7F0E0001D16F0A0E0001D26F020E8C
:1015E8000001D36F0DEC27F01200D90E0001D06F67
:1015F8007F0E0001D16F0A0E0001D26F020E0001AA
:10160800D36F0DEC27F01200DD0E0001D06F7F0EB6
:101618000001D16F0A0E0001D26F020E0001D36FD4
:101628000DEC27F01200F50E0001D06F7F0E0001BF
:10163800D16F0A0E0001D26F020E0001D36F0DECBC
:1016480027F012000001F451000AD8B474D7010A37
:10165800D8B480D7030AD8B48CD7010AD8B498D79D
:10166800070AD8B4A4D7010AD8B4B0D7030AD8B4A3
:10167800BCD7010AD8B4C8D70F0AD8B4D4D75BD717
:101688000001DF510001D8B40DD068EC1DF000094D
:10169800D8B404D0010E0001ED6F04D00001F205AA
:1016A8000001B36F0001ED510001D8B4120026EC1F
:1016B8002CF0B90E0001D06F7A0E0001D16F000E28
:1016C8000001D26F000E0001D36F0DEC27F0410E20
:1016D8000001D06F7B0E0001D16F000E0001D26FA8
:1016E800010E0001D36F0DEC27F05E0E0001D06FE4
:1016F8007C0E0001D16F000E0001D26F030E0001B5
:10170800D36F0DEC27F0060E0001B26F1200000136
:10171800B251000AD8B49FEF01F0010AD8B465EFBE
:1017280005F0030AD8B407D5010AD8B4C0D6050A0B
:10173800D8B4D9EF01F0010AD8B481EF02F00F0A4A
:10174800D8B408EF03F0020AD8B484EF04F0010A11
:10175800D8B42BEF05F0070AD8B43FEF06F0010A1A
:10176800D8B45EEF07F0030AD8B4EBEF05F0010A2E
:10177800D8B433D51E0AD8B483D79EEF01F0000140
:10178800DA6F000E0001D96F0FD3FFD7040E0001E6
:10179800C46F7F0E0001C56F2FEC2BF0000E000107
:1017A800C46F320EC36F73EC2AF091D10001D65189
:1017B8000001D8B403D00A0E00019A6F0001DA5173
:1017C8000001D8B415D3640E0001C36F010E0001E7
:1017D800C46FB20E0001C56F7F0E0001C66F000E08
:1017E8000001C86F040EC76F37EC24F00001C35125
:1017F8000001C411D8A433D0000E0001B16F26EC4B
:101808002CF0DB0E0001D06F7A0E0001D16F000EB4
:101818000001D26F000E0001D36F0DEC27F0520EBD
:101828000001D06F7B0E0001D16F000E0001D26F56
:10183800020E0001D36F0DEC27F0640E0001D06F8B
:101848007A0E0001D16F000E0001D26F030E000165
:10185800D36F0DEC27F04BD000019A6FC9D2640EFC
:101868000001C36F010E0001C46FB70E0001C56F00
:101878007F0E0001C66F000E0001C86F040EC76F0F
:1018880037EC24F00001C3510001C411D8A431D0B1
:10189800010E0001B16F26EC2CF0DB0E0001D06FB9
:1018A8007A0E0001D16F000E0001D26F000E000108
:1018B800D36F0DEC27F0520E0001D06F7B0E0001A4
:1018C800D16F000E0001D26F020E0001D36F0DEC34
:1018D80027F0640E0001D06F7A0E0001D16F000E60
:1018E8000001D26F030E0001D36F0DEC27F0020E3A
:1018F800B3D7040E0001C46F7F0E0001C56F2FEC33
:101908002BF0000E0001C46F190EC36F73EC2AF0A0
:10191800E4D10001D5510001D8B41ED0200E000139
:10192800D06F7A0E0001D16F000E0001D26F030E46
:101938000001D36F0DEC27F0010E0001C46FF40E07
:10194800C36F73EC2AF0EF0E0001C46F7D0E000127
:10195800C56F2FEC2BF079D00001D6510001D8B417
:1019680047D2530E0001D06F7A0E0001D16F000EDE
:101978000001D26F030E0001D36F0DEC27F0010EAA
:101988000001C46FF40EC36F73EC2AF0430E00011C
:10199800C46F7D0E0001C56F2FEC2BF088D10001BC
:1019A800DA510001D8B424D2640E0001C36F010ECD
:1019B8000001C46FF90E0001C56F7F0E0001C66FEC
:1019C800BCEC28F00001C3510001C411D8A402D016
:1019D800040E42D7640E0001C36F010E0001C46FEC
:1019E8005F0E0001C56F7D0E0001C66FBCEC28F0CC
:1019F8000001C3510001C411D8A41FD026EC2CF05B
:101A0800BC0E0001D06F7E0E0001D16F000E0001E8
:101A1800D26F000E0001D36F0DEC27F0210E0001EC
:101A2800D06F7F0E0001D16F000E0001D26F010E42
:101A38000001D36F0DEC27F099D0EF0E0001C46FB1
:101A48007D0E0001C56F2FEC2BF0030E05D70001AA
:101A5800DA510001D8B4CCD1640E0001C36F010E75
:101A68000001C46F2A0E0001C56F7F0E0001C66F0A
:101A7800BCEC28F00001C3510001C411D8A41FD048
:101A880026EC2CF0DC0E0001D06F7E0E0001D16F29
:101A9800000E0001D26F000E0001D36F0DEC27F08D
:101AA800A60E0001D06F7E0E0001D16F000E00015E
:101AB800D26F010E0001D36F0DEC27F0BCD0FA0EE7
:101AC8000001C46F7E0E0001C56F2FEC2BF0010ED4
:101AD800C3D60001DA510001D8B48AD1640E0001DE
:101AE800C36F010E0001C46FF90E0001C56F7F0EB0
:101AF8000001C66FBCEC28F00001C3510001C411FD
:101B0800D8A402D0060EA8D6640E0001C36F010E39
:101B18000001C46F5F0E0001C56F7D0E0001C66F26
:101B2800BCEC28F00001C3510001C411D8A420D096
:101B380026EC2CF0BC0E0001D06F7E0E0001D16F98
:101B4800000E0001D26F000E0001D36F0DEC27F0DC
:101B5800210E0001D06F7F0E0001D16F000E000131
:101B6800D26F010E0001D36F0DEC27F0090E74D669
:101B7800640E0001C36F010E0001C46F510E000115
:101B8800C56F7D0E0001C66FBCEC28F00001C35183
:101B98000001C411D8A409D0430E0001C46F7D0E02
:101BA8000001C56F2FEC2BF082D0640E0001C36FCB
:101BB800010E0001C46F9B0E0001C56F7E0E00016F
:101BC800C66FBCEC28F083D00001DA510001D8B40C
:101BD8000FD1640E0001C36F010E0001C46F2A0EFD
:101BE8000001C56F7F0E0001C66FBCEC28F0000134
:101BF800C3510001C411D8A420D026EC2CF0900EBB
:101C08000001D06F7E0E0001D16F000E0001D26F6F
:101C1800000E0001D36F0DEC27F0A60E0001D06F67
:101C28007E0E0001D16F000E0001D26F010E00017F
:101C3800D36F0DEC27F0070E0FD6640E0001C36FAB
:101C4800010E0001C46F8F0E0001C56F7F0E0001E9
:101C5800C66FBCEC28F00001C3510001C411D8A420
:101C680028D026EC2CF0F00E0001D06F7E0E00017B
:101C7800D16F010E0001D26F000E0001D36F0DEC81
:101C880027F0880E0001D06F7F0E0001D16F020E81
:101C98000001D26F010E0001D36F0DEC27F0430E47
:101CA8000001C46F7D0E0001C56F2FEC2BF0050EEF
:101CB800D3D5640E0001C36F010E0001C46F9B0EE3
:101CC8000001C56F7E0E0001C66FBCEC28F0000154
:101CD800C3510001C411D8A48BD0000EBDD5B10EDC
:101CE8000001C46F7E0E0001C56F2FEC2BF021D0D0
:101CF8000001DA510001D8B47BD0640E0001C36F33
:101D0800010E0001C46F510E0001C56F7D0E000168
:101D1800C66FBCEC28F00001C3510001C411D8A45F
:101D28000AD0B10E0001C46F7E0E0001C56F2FEC02
:101D38002BF0080E91D501016451D00F0001D86F26
:101D4800D8C0F4F0010E0001D96F52D00001D6516D
:101D58000001D8B44DD00A0E7FD5000E0001C36F24
:101D6800000EC0EC29F082A082B201D0FCD7FA0E96
:101D78000001D76F580EE82EFED7D72FFCD700D01A
:101D8800FA0E0001D76F580EE82EFED7D72FFCD7D2
:101D980000D0FA0E0001D76F580EE82EFED7D72FC5
:101DA800FCD700D0FF0024D000019A51000AD8B413
:101DB800EDD4010AD8B4FAD4030AD8B4AAD5010AD2
:101DC800D8B4EDD5070AD8B442D6010AD8B481D61A
:101DD800030AD8B4F9D6010AD8B481D70F0AD8B4FF
:101DE80087D7010AD8B4B2D7030AD8B4B6D7CDD4A6
:101DF8000001D9511200000E0101E66F000E010129
:101E0800E96F000E0101EA6F000E0101EE6F030E8B
:101E18000101EB6F80A009D0D9EC2CF00009D8A4FF
:101E280007D0040E0001F76F03D0000EC2EC2CF0AF
:101E380000019CA108D0D1EC2CF0A5EC14F0000115
:101E48009C51C5EC2BF0EBEC25F00101EB6F010187
:101E5800EB05D8A407D0000E0001B36F010E0101F5
:101E6800E96F0BD0020E0101EB19D8A406D0000EC1
:101E78000001B36F010E0101EA6F65EC26F000095D
:101E8800D8B402D0010E01D0000E0101EE6F060E8B
:101E98000001B219D8B405D0020E0001B219D8A4B5
:101EA8006DD00001835105E1050E0001825DD8A0C7
:101EB80065D0000E0101E86F000EE76F000E00010B
:101EC800C46F0A0EC36F73EC2AF0200E0101EC6F89
:101ED8000101EC510101D8B419D0030E37EC29F0F7
:101EE800000180510001C327000181510001C42372
:101EF800D8900001C4310001EE6F0001C331000128
:101F0800806FEEC081F00101EC07E2D7000E0001FE
:101F1800C46F0A0EC36F73EC2AF0200E0101ED6F37
:101F28000101ED510101D8B419D0020E37EC29F0A6
:101F38000101E7510001C3270101E8510001C42351
:101F4800D8900001C4310001EE6F0001C3310101D6
:101F5800E76FEEC0E8F10101ED07E2D70101E751B3
:101F680016EC2BF00001EE6F0001EE510001866FB8
:101F7800876B000E0001836F000E826F0001F25123
:101F88000001B35DD8A08CD00001F651D8B488D038
:101F98000001F2510001B35DD8A082D0010E010109
:101FA800E66F000E0001B36F7BD0FFD726EC2CF054
:101FB800E60E0001D06F7E0E0001D16F010E000108
:101FC800D26F000E0001D36F0DEC27F03C0E00011C
:101FD800D06F7F0E0001D16F020E0001D26F010E8B
:101FE8000001D36F0DEC27F0630E0001D06F7B0E5C
:101FF8000001D16F000E0001D26F030E0001D36FF4
:102008000DEC27F0000E00019A6F020E3BD0E9C1DB
:10201800D5F0EAC1D6F00101EE51C3EC0BF000098E
:10202800D8B44CD026EC2CF0C90E0001D06F7B0E32
:102038000001D16F000E0001D26F000E0001D36FB6
:102048000DEC27F0EB0E0001D06F7B0E0001D16F75
:10205800000E0001D26F020E0001D36F0DEC27F0C5
:10206800CA0E0001D06F7A0E0001D16F000E000178
:10207800D26F030E0001D36F0DEC27F0000E0001A4
:10208800B26F030E0001F76F19D0EAC1DFF0EEC19D
:10209800E0F0E6C1E1F00101E9515FEC00F00ED09B
:1020A8000001F751010AD8B481D7030AD8B4AFD7D1
:1020B800010AD8B4EAD7070AD8A477D70001F7519C
:1020C800120004013205D8A411D0040130511F0BAD
:1020D8000009D8A40BD00C8E030E04013119D8A422
:1020E80002D0010E01D0000E0001916F040132519F
:1020F800D8A41200040130511F0B020AD8A4120000
:10210800040134510F0B0009D8B4120004013451F2
:102118000F0B436E030E43601200200E0001971947
:10212800D8A412000C8E040134BF1BD00401345112
:102138000F0B436E4350020D600EF324D96E000E50
:10214800F420DA6EDECF47F0DDCF48F004013451D9
:102158000F0B436E4350010D6D0EF324D96E000E24
:102168001AD0040134510F0B436E4350020D0F0E69
:10217800F324D96E000EF420DA6EDECF47F0DDCFFF
:1021880048F0040134510F0B436E4350010D6A0EA1
:10219800F324D96E000EF420DA6EDF50466E46B096
:1021A80002D0479401D04784040134BF0BD0040106
:1021B80034510F0B436E4350020D600EF324D96E59
:1021C800000E0AD0040134510F0B436E4350020D28
:1021D8000F0EF324D96E000EF420DA6E47C0DEFF2E
:1021E80048C0DDFF030E04013119D8A42FD047C021
:1021F800D9FF48C0DAFFDFAE1CD0040134BF0BD0D2
:10220800040134510F0B436E4350010D6D0EF3243E
:10221800D96E000E0AD0040134510F0B436E43509F
:10222800010D6A0EF324D96E000EF420DA6E000157
:10223800DF8247C0D9FF48C0DAFF000EDB8447C001
:10224800D9FF48C0DAFF000EDB8E1200040E471AD1
:1022580047C0D9FF48C0DAFFDFAE1BD047C0D9FF5F
:1022680048C0DAFF7F0EDF1647C0D9FF48C0DAFF43
:10227800000EDB8C000E3C6E050E3B6E47C03DF039
:1022880048C03EF0000E406E020E3F6E34EC28F05F
:1022980006D047C0D9FF48C0DAFF000EDB8C040E19
:1022A800471A46B206D047C0D9FF48C0DAFFDFAEAA
:1022B80031D0040134BF0BD0040134510F0B436EED
:1022C8004350010D6D0EF324D96E000E0AD004019F
:1022D80034510F0B436E4350010D6A0EF324D96E2F
:1022E800000EF420DA6E0001DF9247C0D9FF48C023
:1022F800DAFF3B0EDF16000E3C6E050E3B6E47C044
:102308003DF048C03EF0000E406E020E3F6E34ECC9
:1023180028F006D047C0D9FF48C0DAFF3B0EDF16C9
:10232800040134510F0B436E4350010D6A0EF32420
:10233800446E0F0EF420456E44C0D9FF45C0DAFF45
:10234800FE0EDF1612000001CC510001CD6FCE6BDE
:10235800040E0001CD27000ECE23C40E0001CD25AA
:10236800D96E010E0001CE21DA6ECAC0C3F0CBC00F
:10237800C4F0000E0001C66F0A0EC56F76EC27F098
:102388000001C351300FDF6ECAC0C3F0CBC0C4F028
:10239800000E0001C66F0A0EC56F29EC26F0C3C0F7
:1023A800CAF0C4C0CBF00001CC510001CD6FCE6B98
:1023B800030E0001CD27000ECE23C40E0001CD254B
:1023C800D96E010E0001CE21DA6ECAC0C3F0CBC0AF
:1023D800C4F0000E0001C66F0A0EC56F76EC27F038
:1023E8000001C351300FDF6ECAC0C3F0CBC0C4F0C8
:1023F800000E0001C66F0A0EC56F29EC26F0C3C097
:10240800CAF0C4C0CBF00001CC510001CD6FCE6B37
:10241800020E0001CD27000ECE23C40E0001CD25EB
:10242800D96E010E0001CE21DA6ECAC0C3F0CBC04E
:10243800C4F0000E0001C66F0A0EC56F76EC27F0D7
:102448000001C351300FDF6ECAC0C3F0CBC0C4F067
:10245800000E0001C66F0A0EC56F29EC26F0C3C036
:10246800CAF0C4C0CBF00001CC510001CD6FCE6BD7
:10247800010E0001CD27000ECE23C40E0001CD258C
:10248800D96E010E0001CE21DA6ECAC0C3F0CBC0EE
:10249800C4F0000E0001C66F0A0EC56F76EC27F077
:1024A8000001C351300FDF6ECAC0C3F0CBC0C4F007
:1024B800000E0001C66F0A0EC56F29EC26F0C3C0D6
:1024C800CAF0C4C0CBF00001CC51010DC40EF324F6
:1024D800D96E010EF420DA6ECAC0C3F0CBC0C4F0C6
:1024E800000E0001C66F0A0EC56F76EC27F00001DA
:1024F800C351300FDF6E12000001C76F080E0001D4
:10250800C719D8B475D08E0E0001C46F7C0E0001B7
:10251800C56F2FEC2BF0FA0E0001C66F580EE82E8F
:10252800FED7C62FFCD700D0FA0E0001C66F580E92
:10253800E82EFED7C62FFCD700D0FA0E0001C66FD2
:10254800580EE82EFED7C62FFCD700D051D0870EE4
:102558000001C46F7D0E0001C56F2FEC2BF065D014
:10256800940E0001C46F7D0E0001C56F2FEC2BF097
:102578005CD0A10E0001C46F7D0E0001C56F2FEC69
:102588002BF053D0AE0E0001C46F7D0E0001C56F55
:102598002FEC2BF04AD0BB0E0001C46F7D0E00015A
:1025A800C56F2FEC2BF041D0C80E0001C46F7D0E13
:1025B8000001C56F2FEC2BF038D0D50E0001C46F89
:1025C8007D0E0001C56F2FEC2BF02FD0E20E00011D
:1025D800C46F7D0E0001C56F2FEC2BF026D0EB0EDB
:1025E8000001C46F7C0E0001C56F2FEC2BF01DD0CD
:1025F8000001C751000AD8B4AAD7010AD8B4B0D785
:10260800030AD8B4B6D7010AD8B4BCD7070AD8B4D5
:10261800C2D7010AD8B4C8D7030AD8B4CED7010A9A
:10262800D8B4D4D70F0AD8B4DAD7FA0E0001C66FD7
:10263800580EE82EFED7C62FFCD700D0FA0E0001A0
:10264800C66F580EE82EFED7C62FFCD700D0FA0E5C
:102658000001C66F580EE82EFED7C62FFCD700D053
:10266800330E0001C46F7F0E0001C56F2FEC2BF0F5
:102678001200A3940001765100017711D8B413D049
:1026880076C0D9FF77C0DAFF0001DFAE04D00001C1
:10269800CA6BCA2B02D00001CA6B0001CA510001E3
:1026A800CB6FCC6B05D0000E0001CC6F000ECB6F4A
:1026B8000001CB510001CC11D8B402D0A384120080
:1026C800030E2318D8A402D0000E236E2350D8A4DA
:1026D80002D0A3841200020E2318D8A416D0010E2B
:1026E8000001C36F000E0001C46F000E0001C56F2A
:1026F800000E0001C66F020E1DEC1FF0C3C076F07D
:10270800C4C077F0030E236E6FD02304D8A46CD016
:10271800400E00019F6504D0400E0001CE6F02D02C
:102728009FC0CEF00001CE51000800019F25000196
:102738009F6F000E0001706F050E0001716FCEC013
:10274800CDF000019D51D8B413D02AD073C0D9FF61
:1027580074C0DAFF70C0E1FF71C0E2FFDFCFE7FFAE
:102768000001704B712B0001734B742B0001CD07D6
:102778000001CD510001D8B418D0E8D773C0D9FFF3
:1027880074C0DAFF70C0E1FF71C0E2FFDFCFE7FF7E
:102798000001704B712B0001734B742B0001CD07A6
:1027A8000001CD510001D8A4E9D700019F51D8A458
:1027B80009D0400E0001CE19D8A402D0020E01D0D3
:1027C800030E236E010E0001C36F000E0001C46FDB
:1027D800050E0001C56FCEC0C6F0020E1DEC1FF03D
:1027E800C3C076F0C4C077F0A3841200A394000E8F
:1027F800676E000E656E000E6A6E6B0E0001C36F89
:102808000F0E0001C46F000E0001C66F000EC56FE9
:10281800000E0001C86F020EC76FE2EC2AF0160E18
:10282800626E9F0E666E7B0E646E000E0001CB6FAB
:102838000B0E0001CB6501D010D00001CB51040D67
:10284800000EF324D96E040EF420DA6EDE6ADE6A16
:10285800DE6ADD6A0001CB2BEBD7608C000E636E5D
:102868006098609C09D06596000E0C6E000E046E90
:10287800000E066E000E056E65B6F5D7010E000156
:10288800986F010E0001996F000E0001956F000E00
:102898000001966F000E0001946F000E0001CB6FCF
:1028A800020E0001CB6501D033D00001CB51020DDF
:1028B8000F0EF324D96E000EF420DA6E000EDE6ED1
:1028C800000EDD6E0001CB51020D600EF324D96EAF
:1028D800000EF420DA6E000EDE6E000EDD6E0001D2
:1028E800CB51010D6A0EF324D96E000EF420DA6E76
:1028F800000EDF6E0001CB51010D6D0EF324D96E71
:10290800000EF420DA6E000EDF6E0001CB2BC8D764
:10291800080E0F6E040E106E160E6A6E040E040179
:10292800036F300E026F080E0401016F040E0401DC
:10293800006F0401008F000E2C6E000E0001976FCF
:10294800120000018A4B8B2B8AC0C3F08BC0C4F0E5
:10295800000E0001C66F0A0EC56F76EC27F0000165
:10296800C3510001C411D8A4120000019C838AC07D
:10297800C3F08BC0C4F0000E0001C66F640EC56FB3
:1029880076EC27F00001C3510001C411D8A412004D
:1029980000019C858AC0C3F08BC0C4F0030E0001FF
:1029A800C66FE80EC56F76EC27F00001C351000131
:1029B800C411D8A4120000019C878AC0C3F08BC040
:1029C800C4F00001C56BC66B600E0001C76FEA0E4C
:1029D800C86F000EC96F000ECA6F43EC1AF00001F1
:1029E800C3510001C4110001C5110001C611D8A4CA
:1029F80012000001884B892B00019C8988C0C3F014
:102A080089C0C4F0000E0001C66F3C0EC56F76EC9D
:102A180027F00001C3510001C411D8A4120000011D
:102A28009C8B88C0C3F089C0C4F0020E0001C66F39
:102A3800D00EC56F76EC27F00001C3510001C41118
:102A4800D8A4120000019C8D88C0C3F089C0C4F0CE
:102A5800050E0001C66FA00EC56F76EC27F00001C9
:102A6800C3510001C411D8A4120000019C8F000EAC
:102A780000018B6F000E8A6F000E0001896F000E37
:102A8800886F1200D5C0C3F0D6C0C4F0000E000194
:102A9800C66F0A0EC56F76EC27F00001C351300FE0
:102AA8000001DD6FD5C0C3F0D6C0C4F0000E000130
:102AB800C66F0A0EC56F29EC26F0C3C0D5F0C4C096
:102AC800D6F0D5C0C3F0D6C0C4F0000E0001C66F62
:102AD8000A0EC56F76EC27F00001C351300F0001D4
:102AE800DC6FD5C0C3F0D6C0C4F0000E0001C66FBD
:102AF8000A0EC56F29EC26F0C3C0D5F0C4C0D6F0C5
:102B0800D5C0C3F0D6C0C4F0000E0001C66F0A0ECF
:102B1800C56F76EC27F00001C351300F0001DB6F61
:102B2800D5C0C3F0D6C0C4F0000E0001C66F0A0EAF
:102B3800C56F29EC26F0C3C0D5F0C4C0D6F0D5C007
:102B4800C3F0D6C0C4F0000E0001C66F0A0EC56FF0
:102B580076EC27F00001C351300F0001DA6FD5C0C1
:102B6800C3F0D6C0C4F0000E0001C66F0A0EC56FD0
:102B780029EC26F0C3C0D5F0C4C0D6F0D5C0C3F048
:102B8800D6C0C4F0000E0001C66F0A0EC56F76EC01
:102B980027F00001C351300F0001D96F000E00016A
:102BA800DE6FD90E0001D06F000E0001D16FD7C0C3
:102BB800D2F0D8C0D3F00DEC27F01200A394000E89
:102BC800676E000E656E000E6A6E6B0E2E6E0F0E2F
:102BD8002F6E000E316E000E306E000E336E020E38
:102BE800326E5FEC2BF0160E626E9F0E666E7B0ED9
:102BF800646E000E366E0B0E366401D00ED0365061
:102C0800040D000EF324D96E040EF420DA6EDE6A89
:102C1800DE6ADE6ADD6A362AEED7608C000E636EE5
:102C28006098609C09D06596000E0C6E000E046ECC
:102C3800000E066E000E056E65B6F5D7010E000192
:102C4800986F010E0001996F000E0001956F000E3C
:102C58000001966F000E0001946F000E366E020E92
:102C6800366401D02ED03650020D0F0EF324D96EE3
:102C7800000EF420DA6E000EDE6E000EDD6E3650A9
:102C8800020D600EF324D96E000EF420DA6E000EE9
:102C9800DE6E000EDD6E3650010D6A0EF324D96E1D
:102CA800000EF420DA6E000EDF6E3650010D6D0E48
:102CB800F324D96E000EF420DA6E000EDF6E362A89
:102CC800CED7080E0F6E040E106E160E6A6E040E26
:102CD8000401036F300E026F080E0401016F040E29
:102CE8000401006F0401008F000E2C6E000E00011D
:102CF800976F120000019705D8B460BA07D0000E8C
:102D0800656E64806488020E0001976F65B464A4E0
:102D180003D0659447EC2BF060A202D0A494120073
:102D280065B064A007D0E2EC15F0A384040E00019E
:102D3800976F659065B864A803D075EC2BF065981B
:102D480065AC18D064AC0ED0000E3C6E730E3B6EB2
:102D5800000E3D6E000E3E6E000E406E010E3F6E80
:102D680034EC28F0659C2250D8A422062250D8B40E
:102D780057EC20F065BA64AA02D09FEC29F065B23E
:102D880064A20FD07F0E3C6E3B68000E3D6E000EB5
:102D98003E6E000E406E010E3F6E34EC28F0000EC1
:102DA800676E040E0001976102D0A494120064A615
:102DB80039D0000E4C6E030E4C6401D033D065A69A
:102DC80031D061CF2DF02D30E832E8320F0B256E6F
:102DD80065962DB407D02550010D6D0EF324D96EDC
:102DE800000E06D02550010D6A0EF324D96E000E90
:102DF800F420DA6E0001DF702550D8A403D0F0EC7F
:102E08001FF00ED0000E3C6E720E3B6E2D0E3D6E06
:102E1800000E3E6E000E406E000E3F6E34EC28F041
:102E28004C2AC9D7A494120020EE01F01750D926D5
:102E38001850DA22DF50406E4050055C000E0658EC
:102E4800D8A005C040F04050055E000E065A000E9E
:102E58003F6E11D03F50010D380EF324D96E040E89
:102E6800F420DA6E01C0E1FF02C0E2FFDFCFE7FF26
:102E7800014A022A3F2A40503F5CD8A0EBD70550B0
:102E88000610D8B432D020EE01F01950D9261A50C5
:102E9800DA22080EDF6E20EE02F01950D9261A50F9
:102EA800DA22380EDE6E040EDD6E17C0D9FF18C0A8
:102EB800DAFFDFBC0DD019C0D9FF1AC0DAFF480EFF
:102EC800DF6E19C0D9FF1AC0DAFF000EDB8E1200C0
:102ED80019C0D9FF1AC0DAFF080EDF6E19C0D9FF72
:102EE8001AC0DAFF000EDB8E120020EE01F0195036
:102EF800D9261A50DA22080EDF6E20EE02F0195099
:102F0800D9261A50DA22300EDE6E040EDD6E19C094
:102F1800D9FF1AC0DAFF040EDF6E19C0D9FF1AC034
:102F2800DAFF000EDB8E07500810D8B40ED020EE62
:102F380007F001D80AD00500FA6EDE50FD6EDE50AB
:102F4800FE6EF850FF6EFA501200049E2150D8A46D
:102F5800120057EC20F01200800E04013019D8A49A
:102F68001200C00E0C6E7CD0360E096E790E0A6EF9
:102F7800000E0E6E120E0D6E120004013251D8A40E
:102F88003ED004013251020D890EF324F66E750EFF
:102F9800F420F76E0900F5CF09F00A00F5CF0AF022
:102FA800020E09242E6E000E0A202F6E2EC0F6FF88
:102FB8002FC0F7FFF86A070EF76403D00800F55032
:102FC80005D0F6CFE9FFF7CFEAFFEF500D6E030EFD
:102FD80009242E6E000E0A202F6E2EC0F6FF2FC079
:102FE800F7FFF86A070EF76403D00800F55005D01C
:102FF800F6CFE9FFF7CFEAFFEF500E6E1200000E92
:103008000C6E1200030E0401326124D00401325107
:10301800020D830EF324F66E750EF420F76E090088
:10302800F5CF09F00A00F5CF0AF009C0F6FF0AC08B
:10303800F7FFF86A070EF76403D00800F55005D0CB
:10304800F6CFE9FFF7CFEAFFEF502E6E2E500D6E48
:103058000E6A1200000E0C6E1200000E0C6E1200AA
:1030680004013351010AD8B47FD7030AD8B485D7ED
:10307800010AD8B4C7D7F1D7E9EC2BF0B2EC2BF0A2
:10308800FAEC13F0FCEC2AF0F28CF28E010E00013F
:10309800C46F2C0EC36F73EC2AF020EC25F0010EE0
:1030A8000001C46F2C0EC36F73EC2AF076EC2CF081
:1030B800000E0001C46F640EC36F73EC2AF0000E9B
:1030C80061EC2CF00001AD6F550E0001AD19D8B4BC
:1030D80008D07DEC29F0550E0001C36F000EC0EC3E
:1030E80029F0000E0001AC6F000EC7EC2CF026ECA6
:1030F8002CF0180E0001D06F7D0E0001D16F000E6C
:103108000001D26F000E0001D36F0DEC27F0FA0E0C
:103118000001D06F7C0E0001D16F000E0001D26F4C
:10312800010E0001D36F0DEC27F0090E0001D06FDE
:103138007D0E0001D16F000E0001D26F030E000159
:10314800D36F0DEC27F0030E0001C46FE80EC36FB8
:1031580073EC2AF015D0FFD789EC1FF0010E00019F
:10316800AC6F010ECCEC2CF00BD0FFEC0EF0040A87
:10317800D8A406D0000E0001AC6F000EC7EC2CF0EE
:103188000001AC51000AD8B4E7D7010AD8B4EDD78A
:10319800E2D760980CBE3BD004AE0ED0020E246E6F
:1031A80000019651D8B488EC24F0000E0001996F04
:1031B800000E0001986F120020EE01F01950D92678
:1031C8001A50DA22080EDF6E20EE02F01950D926C6
:1031D8001A50DA22300EDE6E040EDD6E19C0D9FFE9
:1031E8001AC0DAFF0C0EDF6E19C0D9FF1AC0DAFF59
:1031F800000EDB8E0FC0D9FF10C0DAFF040EDF6EA1
:103208000FC0D9FF10C0DAFF000EDB8E12000401D8
:1032180030AF13D0010E246E00019551D8B488EC5C
:1032280024F0000E0001996F000E0001986F2150E4
:10323800D8A4120057EC20F01200020E246E20EEE3
:1032480001F01950D9261A50DA22080EDF6E20EE46
:1032580002F01950D9261A50DA22300EDE6E040E0A
:10326800DD6E19C0D9FF1AC0DAFF040EDF6E19C06F
:10327800D9FF1AC0DAFF000EDB8E000E0001996F2D
:10328800000E0001986F2150D8A4120057EC20F0CE
:103298001200010E0001D66FF40ED56F000E00016A
:1032A800D76F26EC2CF0FC0E0001D06F7D0E0001CC
:1032B800D16F000E0001D26F000E0001D36F0DEC2C
:1032C80027F082B082A201D00FD0840E0001D06F07
:1032D8007E0E0001D16F000E0001D26F030E0001B7
:1032E800D36F0DEC27F045D0230E0001D06F7E0E72
:1032F8000001D16F000E0001D26F010E0001D36FE3
:103308000DEC27F036D082B013D0090E0001D06F33
:103318007E0E0001D16F000E0001D26F020E000177
:10332800D36F0DEC27F00001D751080F0001D76FBC
:1033380082B213D0160E0001D06F7E0E0001D16F3D
:10334800000E0001D26F030E0001D36F0DEC27F0C1
:103358000001D751800F0001D76F880E0001D719DF
:10336800D8B41200000E0001C46F0A0EC36F73ECCC
:103378002AF00001D507D8A0D6070001D529C3E156
:103388000001D629D8B41200BED70001C76FFA0EC3
:103398000001C66F580EE82EFED7C62FFCD700D006
:1033A800FA0E0001C66F580EE82EFED7C62FFCD7BE
:1033B80000D0FA0E0001C66F580EE82EFED7C62FB1
:1033C800FCD700D00001C7510001D8B42CD0800E22
:1033D8000001C46F790E0001C56F2FEC2BF0FA0EB7
:1033E8000001C66F580EE82EFED7C62FFCD700D0B6
:1033F800FA0E0001C66F580EE82EFED7C62FFCD76E
:1034080000D0FA0E0001C66F580EE82EFED7C62F60
:10341800FCD700D09A0E0001C46F790E0001C56F69
:103428002FEC2BF012004C0E0001C46F790E000136
:10343800C56F2FEC2BF0FA0E0001C66F580EE82E60
:10344800FED7C62FFCD700D0FA0E0001C66F580E63
:10345800E82EFED7C62FFCD700D0FA0E0001C66FA3
:10346800580EE82EFED7C62FFCD700D0660E0001F6
:10347800C46F790E0001C56F2FEC2BF01200000EFF
:103488000001CC6F0001C6AF0CD00001C61FC51FDC
:10349800C41FC36D000EC423C523C623010E00013B
:1034A800CC6F0001CAAF09D00001CA1FC91FC81FCD
:1034B800C76D000EC823C923CA230001C7510001E4
:1034C800C8110001C9110001CA11D8B43AD0010EBF
:1034D8000001CB6F08D00001D890C737C837C9376B
:1034E800CA370001CB2B0001CAAFF5D70001C7517D
:1034F8000001C35D0001C8510001C4590001C95150
:103508000001C5590001CA510001C659D8A010D000
:103518000001C7510001C35F0001C8510001C45B2D
:103528000001C9510001C55B0001CA510001C65B19
:103538000001D890CA33C933C833C7330001CB2F31
:10354800D5D70001CC510001D8B409D00001C61F5D
:10355800C51FC41FC36D000EC423C523C623C3C023
:10356800C3F0C4C0C4F0C5C0C5F0C6C0C6F01200E0
:1035780026EC2CF0600E0001D06F7F0E0001D16F99
:10358800000E0001D26F000E0001D36F0DEC27F082
:10359800710E0001D06F7F0E0001D16F000E000187
:1035A800D26F010E0001D36F0DEC27F00E0E000153
:1035B800C66F010E0001C76F430E90EC22F0790E22
:1035C8000001D06F7F0E0001D16F000E0001D26F95
:1035D800020E0001D36F0DEC27F0000E0001E46F1E
:1035E800310E0001E46501D01200000E0001C46F25
:1035F800320EC36F73EC2AF0020E37EC29F0C3C009
:10360800E1F0C4C0E2F00001E15116EC2BF000013A
:10361800E36F000E0001C46F320EC36F73EC2AF023
:10362800030E37EC29F0C3C0DFF0C4C0E0F00A0E87
:103638000001D56F010E0001D66F0001E35192EC35
:1036480023F0DFC0D5F0E0C0D6F00A0E0001D76F36
:10365800020E0001D86F46EC15F00001E42BC0D72C
:10366800000E00019E6F0001785100017911D8B455
:1036780013D078C0D9FF79C0DAFF0001DFAE04D0DB
:103688000001CD6BCD2B02D00001CD6B0001CD51D7
:103698000001CE6FCF6B05D0000E0001CF6F000E7A
:1036A800CE6F0001CE510001CF11D8A44BD000013C
:1036B80020EE01F07851D9267951DA220001CC5157
:1036C800DE5CD8B00AD0000120EE01F07851D9268E
:1036D8007951DA22DF500001CC6F000E00019E6F95
:1036E80018D000019E51010D400EF324D96E050E2D
:1036F800F420DA6E00019E51010DF3500001CA2535
:10370800E16EF4500001CB21E26EDFCFE7FF00014C
:103718009E2B0001CC5100019E5DD8A0E2D7000E7F
:103728000001C36F400E0001C46F050E0001C56F94
:10373800400E0001C66F020E1DEC1FF0C3C078F0EA
:10374800C4C079F000019E5112001F0E0001976558
:10375800120060B212001F50D8A413D0240E00012A
:10376800CA6F010E0001CB6F400E0001CC6F34EC24
:103778001BF01D6E1D50D8B404D0010E1F6E000E34
:10378800206E1F50D8A4ACA212D02050010D240ED8
:10379800F324D96E010EF420DA6EDF50DEEC29F046
:1037A800202A1D502018D8A402D0000E1F6E2650C3
:1037B800D8B424D0E2EC2CF00009D8B41FD03F0EC6
:1037C8001E601CD000F05AEC29F00001D06F1E508A
:1037D800010D240EF324D96E010EF420DA6ED0C048
:1037E800DFFF1E2A1E50010D240EF324D96E010E90
:1037F800F420DA6E000EDF6E000E2A6E2350D8A475
:1038080011D01E50D8B40ED0240E0001C36F010E83
:103818000001C46F1EC0C5F0D8EC2BF0D5EC2CF01D
:10382800000E1E6E3DEC13F012000C8E6B0E2E6E09
:103838000F0E2F6E000E316E000E306E000E336EBE
:10384800020E326E5FEC2BF0000E2E6E040E2F6E01
:10385800000E316E000E306E000E336E300E326E7A
:103868005FEC2BF0608C000E436E020E436401D0B7
:1038780016D04350010D6A0EF324D96E000EF420C1
:10388800DA6E000EDF6E4350010D6D0EF324D96E13
:10389800000EF420DA6E000EDF6E432AE6D7C10E62
:1038A8002E6E000E2F6E000E316E000E306E000E62
:1038B800336E020E326E5FEC2BF0609C080E0F6EBA
:1038C800040E106E000E176E040E186E17C019F055
:1038D80018C01AF032C42CF02C50D8A404D0100E02
:1038E8000001976F1200000E3C6E010E3B6E2C0E0D
:1038F8003D6E000E3E6E000E406E010E3F6E34ECC3
:1039080028F0200E0001976F12000FC0D9FF10C0D9
:10391800DAFF000EDFBC010E3F6E040E0F1A080E10
:1039280000019719D8A40CD0040132517F0B636EA3
:103938006350D8B402D0100E01D0040E0001976F66
:103948002404D8A43AD020EE02F00F50D926105003
:10395800DA22380EDE6E040EDD6EBEEC20F0020EAA
:103968002B18D8A40DD00FC0D9FF10C0DAFF040E51
:10397800DF6E0FC0D9FF10C0DAFF000EDB8E120019
:103988003F50D8A40DD00FC0D9FF10C0DAFF480EA1
:10399800DF6E0FC0D9FF10C0DAFF000EDB8E1200F9
:1039A8000FC0D9FF10C0DAFF080EDF6E0FC0D9FFB5
:1039B80010C0DAFF000EDB8E120004AE13D00750E1
:1039C8000810D8B40ED020EE07F001D80AD00500B0
:1039D800FA6EDE50FD6EDE50FE6EF850FF6EFA5045
:1039E8001200049E000E246E12000001CC6F00012C
:1039F800C9510001CA6FCB6B020E0001CA27000E25
:103A0800CB23C40E0001CA25D96E010E0001CB21BB
:103A1800DA6ECCC0C3F00001C46B000E0001C66FA3
:103A28000A0EC56FE6EC23F00001C351300FDF6EBC
:103A38000A0E0001C36F0001CC5106EC28F000010A
:103A4800CC6F0001C9510001CA6FCB6B010E000198
:103A5800CA27000ECB23C40E0001CA25D96E010E59
:103A68000001CB21DA6ECCC0C3F00001C46B000E9C
:103A78000001C66F0A0EC56FE6EC23F00001C351C2
:103A8800300FDF6E0A0E0001C36F0001CC5106EC47
:103A980028F00001CC6F0001C951010DC40EF324B8
:103AA800D96E010EF420DA6ECCC0C3F00001C46BED
:103AB800000E0001C66F0A0EC56FE6EC23F0000188
:103AC800C351300FDF6E1200000E0001D26F82A2C8
:103AD800FED78AEC2BF0010E4BEC2CF0898A8A94E5
:103AE8008A908A988B948A9A8A92000E896E000E20
:103AF8008A6E000E8B6E93689468C290F29EF29E56
:103B0800F29C0F015B81A08C878087828784F28674
:103B1800000E82B0010E0001D26F000E82B2010EBB
:103B28000001D26F000E82B4010E0001D26F0001B5
:103B3800F851D8A4D180F290A19C00F0030000F0C5
:103B4800D19010EC29F0F296879087928794A09CE8
:103B5800F28EE8EC28F0F2A003D0F290010E04D027
:103B68000A0E0001B36F000E0001D26F0F015B91C6
:103B7800000E4BEC2CF0B2EC2BF020EC25F0000EF4
:103B88000001C46F280EC36F73EC2AF020EC25F0F7
:103B9800000E0001C46F280EC36F73EC2AF00001F9
:103BA800D251120004013039E832030B0009D8A4BD
:103BB800120044D00C8E080E0001976F1200B0EC72
:103BC80017F0120019EC1CF012002C0E096E000EF2
:103BD8000A6E0C80010E0D6E0C8E1200E6EC22F0BF
:103BE800120065EC10F0120004013451010DC10EF1
:103BF800F324096E000EF4200A6E0C80010E0D6E7F
:103C08000C8E12000C8E04013451010DC10EF324E8
:103C1800D96E000EF420DA6E32C4DFFF1200000EF7
:103C28003C6E020E3B6E000E3D6E000E3E6E000EA8
:103C3800406E000E3F6E34EC28F012000401315142
:103C4800000AD8B4CBD7010AD8B4CBD7020AD8B463
:103C5800C8D7060AD8B4AED7030AD8B4B0D7010A71
:103C6800D8B4DDD70F0AD8B4B0D7010AD8B4AAD7C8
:103C7800030AD8B4B9D7010AD8B4C4D7070A1200BE
:103C88000BD0C4C0F6FFC5C0F7FF0800F550DEEC46
:103C980029F00001C44BC52BC4C0F6FFC5C0F7FF0F
:103CA8000800F5500009D8A4ECD7000E0001CA6F2F
:103CB800020E0001CA6501D011D00001CA51010DE0
:103CC800F3500001C625D96EF4500001C721DA6E01
:103CD800DF50DEEC29F00001CA2BEAD7000120EE04
:103CE80003F0C651D926C751DA22DF50DEEC29F09D
:103CF800040E0001CB6F28D00001CB51010DF35009
:103D08000001C625D96EF4500001C721DA6EDF50D4
:103D18000001C96F0001C9390F0B56EC2AF0DEEC1F
:103D280029F00001CB51010DF3500001C625D96ED1
:103D3800F4500001C721DA6EDF500F0B56EC2AF061
:103D4800DEEC29F00001CB2B0001C8510001CB5D4E
:103D5800D8A0D2D7AAEC2CF012008A888A8A8A8442
:103D6800500EE82EFED78A94040E0001C56F1C0E73
:103D7800E82EFED7C52FFCD700D08A848A98040E77
:103D88000001C56F1C0EE82EFED7C52FFCD700D04A
:103D98008A9A040E0001C56F1C0EE82EFED7C52FA7
:103DA800FCD700D0AE0EA2EC2CF0D50EA2EC2CF075
:103DB800800EA2EC2CF0A80EA2EC2CF01F0EA2ECA8
:103DC8002CF0D30EA2EC2CF0000EA2EC2CF08D0EF1
:103DD800A2EC2CF0140EA2EC2CF0400EA2EC2CF06D
:103DE800A60EA2EC2CF0A40EA2EC2CF0A00EA2ECD5
:103DF8002CF0C00EA2EC2CF0DA0EA2EC2CF0420E45
:103E0800A2EC2CF0810EA2EC2CF07F0EA2EC2CF090
:103E1800D90EA2EC2CF0F10EA2EC2CF0DB0EA2ECE9
:103E28002CF0400EA2EC2CF0AF0EA2EC2CF08A88FD
:103E380012000001C76F0001C3510001D8B408D0B7
:103E48000001C751020D0F0EF324D96E000E07D0E2
:103E58000001C751020D600EF324D96E000EF42044
:103E6800DA6EDECFC8F0DDCFC9F00001C85100011D
:103E7800C911D8A407D0000E0001C36F000E0001BD
:103E8800C46F1200000120EE02F0C851D926C951B2
:103E9800DA22C4C0DEFFC5C0DDFF000120EE01F05C
:103EA800C851D926C951DA22C6C0DFFFC8C0D9FF18
:103EB800C9C0DAFF400EDF16C8C0D9FFC9C0DAFF93
:103EC800000EDB86C8C0D9FFC9C0DAFF000EDB8E42
:103ED8000001C3510001D8B408D00001C751020D38
:103EE8000F0EF324D96E000E07D00001C751020D42
:103EF800600EF324D96E000EF420DA6E040EDF1A79
:103F0800C8C0C3F0C9C0C4F012004AD0FFD726EC1D
:103F18002CF0180E0001D06F7F0E0001D16F010E3A
:103F28000001D26F000E0001D36F0DEC27F0690E6F
:103F38000001D06F7F0E0001D16F020E0001D26F19
:103F4800010E0001D36F0DEC27F0300E0001D06F89
:103F58007E0E0001D16F000E0001D26F020E00012B
:103F6800D36F0DEC27F0010E06D0200E00019761EB
:103F780001D022D0020E0001B56F1ED0A9EC1BF0B3
:103F8800030E0001D56FEBEC25F00001D56F030E91
:103F98000001D519D8B410D0020E0001F56F0CD06D
:103FA8000001B551000AD8B4B2D7010AD8B4DDD798
:103FB800030AD8B4E3D7AAD780A004D00001F551EA
:103FC800D8B4EED700F0020E0001F519D8B41200EB
:103FD800000E0001F56F12002D0E226E2DC049F063
:103FE800FD0E4916D8A457D02DC049F0D8904932B3
:103FF8003F0E49164950040D000EF324176E040EA7
:10400800F420186E17C019F018C01AF0040E191A07
:1040180017C0D9FF18C0DAFFDF30E8320F0B0D0ADE
:10402800D8A436D0000E4B6E070E4B6401D023D0B7
:1040380020EE02F01750D9261850DA22DECF49F0C8
:10404800DDCF4AF049C0D9FF4AC0DAFF4B50010D15
:10405800300EF324E16E040EF420E26EDFCFE7FFAA
:1040680020EE02F01750D9261850DA22DE2A000E68
:10407800DD224B2AD9D720EE02F01750D926185046
:10408800DA22300EDE6E040EDD6E66EC25F01200CC
:10409800A7EC27F012002D50FD0B040AD8A412003B
:1040A80089EC1CF0120000019851D8A41200010EEE
:1040B8000001986F00019951D8A41200010E000167
:1040C800996F020E2418D8A415D020EE01F00F50D5
:1040D800D9261050DA22000EDF6E0FC0D9FF10C0AB
:1040E800DAFF480EDF6E0FC0D9FF10C0DAFF000EEE
:1040F800DB8E12002404D8A41200000E00018C6F7D
:1041080020EE01F01750D9261850DA22080EDF6E7B
:1041180020EE02F01750D9261850DA22300EDE6E43
:10412800040EDD6E17C0D9FF18C0DAFF040EDF6E6B
:1041380017C0D9FF18C0DAFF000EDB8E010E000190
:104148008C6F20EE01F01950D9261A50DA22080E89
:10415800DF6E20EE02F01950D9261A50DA22300EFE
:10416800DE6E040EDD6E19C0D9FF1AC0DAFF800EAC
:10417800DF6E1200080E2E6E0E5010E1080E0D5C58
:10418800D8B00CD00DC02EF02B50D8A402D0010E00
:1041980004D02B04D8A402D0020E2B6E2E500D5E34
:1041A800000E0E5A20EE01F00F50D9261050DA22D8
:1041B8002EC0DFFF380E0001846F040E0001856FEA
:1041C8000CA01CD03AD009C0F6FF0AC0F7FFF86A65
:1041D80084C0D9FF85C0DAFF070EF76403D0080052
:1041E800F55005D0F6CFE9FFF7CFEAFFEF50DF6EC5
:1041F800094A0A2A0001844B852B2E062E50D8B472
:104208001200E1D709C0F6FF0AC0F7FFF86A84C0B8
:10421800D9FF85C0DAFF070EF76403D00800F55010
:1042280005D0F6CFE9FFF7CFEAFFEF50DF6E094A76
:104238000A2A0001844B852B2E062E50D8B4120072
:10424800E1D7000E0001C86F0001C6AF08D0000119
:10425800C56DC61FD8B0C62B010E0001C86F00017E
:10426800C4AF08D00001C36DC41FD8B0C42B010E61
:104278000001C81B000E0001CA6F000EC96F0001C3
:10428800C5510001C611D8B42CD0010E0001C76F6A
:1042980006D00001D890C537C6370001C72B0001EA
:1042A800C6AFF7D70001D890C937CA370001C55142
:1042B8000001C35D0001C6510001C459D8A00AD04D
:1042C8000001C5510001C35F0001C6510001C45B74
:1042D8000001C9810001D890C633C5330001C72F3A
:1042E800E1D70001C8510001D8B405D00001C96D5B
:1042F800CA1FD8B0CA2BC9C0C3F0CAC0C4F01200C4
:10430800326E2E50D8B407D03250020D0F0EF3245F
:10431800D96E000E06D03250020D600EF324D96E0D
:10432800000EF420DA6EDECF33F0DDCF34F03350F8
:104338003410D8A405D0000E2E6E000E2F6E120079
:1043480020EE02F03350D9263450DA222FC0DEFF97
:1043580030C0DDFF20EE01F03350D9263450DA2288
:1043680031C0DFFF33C0D9FF34C0DAFF400EDF169B
:1043780033C0D9FF34C0DAFF000EDB8633C0D9FF63
:1043880034C0DAFF000EDB8E2E50D8B407D032507E
:10439800020D0F0EF324D96E000E06D03250020D16
:1043A800600EF324D96E000EF420DA6E040EDF1AC4
:1043B80033C02EF034C02FF01200000E0001C36F7E
:1043C800020E0001C36501D00ED00001C351010DDA
:1043D800BE0EF324D96E000EF420DA6E000EDF6EE6
:1043E8000001C32BEDD7000E0001C46F210E0001A0
:1043F800C46501D00ED00001C451010D100EF32484
:10440800D96E010EF420DA6E000EDF6E0001C42BA7
:10441800EDD7000E0001C56F1F0E0001C56501D064
:104428000ED00001C551010DA40EF324D96E010E62
:10443800F420DA6E000EDF6E0001C52BEDD7000EFA
:104448000001C66F0F0E0001C66501D01200000101
:10445800C651010DC40EF324D96E010EF420DA6E94
:10446800000EDF6E0001C62BEDD726EC2CF0450EB2
:104478000001D06F7F0E0001D16F000E0001D26FD6
:10448800000E0001D36F0DEC27F09F0E0001D06FD6
:104498007D0E0001D16F000E0001D26F060E0001E3
:1044A800D36F0DEC27F0920E0001D06F7D0E000146
:1044B800D16F000E0001D26F080E0001D36F0DEC12
:1044C80027F0AE0E0001D06F7C0E0001D16F000EF8
:1044D8000001D26F010E0001D36F0DEC27F0780EAA
:1044E8000001D06F7E0E0001D16F000E0001D26F67
:1044F800020E0001D36F0DEC27F04E0E0001D06FB5
:104508007F0E0001D16F000E0001D26F030E000173
:10451800D36F0DEC27F012000001CE6F0001C751D8
:1045280018EC2CF00001C651080DF350FAEC2BF0F2
:104538008A98000E0001CF6F070E0001CF6501D0E9
:104548003FD00001CF51010D000E0001C86FFF0ED2
:104558000001C96F0001CE510001CA6FCB6B000189
:10456800D890CA37CB370001D890CA37CB3700016B
:10457800D890CA37CB370001C8510001CA270001BB
:10458800C9510001CB23F0C0CCF0F1C0CDF000013F
:10459800CA510001CC270001CB510001CD23F350B3
:1045A8000001CC27F4500001CD23CCC0F6FFCDC0CC
:1045B800F7FF0800F5509AEC2CF00001CF2BBCD780
:1045C8008A881200000E0401386F000E0401396F4A
:1045D80039D00C8E00019105D8A440D0040138834D
:1045E8003DD00C8E3BD00C8E040134BF0BD004019F
:1045F80034510F0B2E6E2E50020D600EF324D96E1F
:10460800000E0AD0040134510F0B2E6E2E50020DED
:104618000F0EF324D96E000EF420DA6EDECF2FF0E1
:10462800DDCF30F02FC0D9FF30C0DAFFDFAE16D0B3
:104638002FC0D9FF30C0DAFFDFA410D0010E04016B
:10464800386F0CD0040130511F0B000AD8B4C1D701
:10465800010AD8B4C6D7030AD8B4C5D70CAE12001D
:10466800380E096E040E0A6E0C80020E0D6E1200D2
:10467800040130511F0BE806D8A412000401303998
:10468800E832030BE806D8A4120004013451D8B468
:1046980033D004013405D8A412002ED0DE0E096EE2
:1046A800010E0A6E000E0E6E080E0D6E0C800C8E3A
:1046B8001200DE0E096E010E0A6E0C8E120036C450
:1046C80005F037C406F0D40E016E010E026E1E0E00
:1046D800076E510E086E048E1200B70E096E000E9A
:1046E8000A6E000E0E6E070E0D6EC10E0C6E1200D5
:1046F80032C4A0F00C8E120004013151000AD8B463
:10470800CDD7010AD8B4D5D7210AD8B4D8D7010A49
:10471800D8B4E3D7030AD8A41200EAD70001D76FA8
:10472800D7C0C3F00001C46B000E0001C66F0A0EAB
:10473800C56FE6EC23F00001C351300F0001DA6FBA
:104748000A0E0001C36F0001D75106EC28F00001E2
:10475800D76FD7C0C3F00001C46B000E0001C66F4D
:104768000A0EC56FE6EC23F00001C351300F0001BB
:10477800D96F0A0E0001C36F0001D75106EC28F06B
:104788000001D76FD7C0C3F00001C46B000E000151
:10479800C66F0A0EC56FE6EC23F00001C351300F57
:1047A8000001D86F000E0001DB6FD80E0001D06F3A
:1047B800000E0001D16FD5C0D2F0D6C0D3F00DECF9
:1047C80027F01200000E0001C86F0001C4AF08D026
:1047D8000001C36DC41FD8B0C42B010E0001C86FFF
:1047E8000001C6AF05D00001C56DC61FD8B0C62BE5
:1047F8000001C5510001C611D8B426D0010E000130
:10480800C76F06D00001D890C537C6370001C72B3F
:104818000001C6AFF7D70001C5510001C35D000113
:10482800C6510001C459D8A008D00001C5510001E3
:10483800C35F0001C6510001C45B0001D890C633B4
:10484800C5330001C72FE7D70001C8510001D8B40C
:1048580005D00001C36DC41FD8B0C42BC3C0C3F0BA
:10486800C4C0C4F012003FD0C3C0D9FFC4C0DAFF2F
:10487800DF50D8B411D0C3C0D9FFC4C0DAFFDF50AD
:104888000001C96FC5C0F6FFC6C0F7FF0800F550A4
:104898000001C919D8B421D0C5C0F6FFC6C0F7FFBA
:1048A8000800F5500001C96FCA6B0001C91FCA1F73
:1048B800C94BCA2BC3C0D9FFC4C0DAFFDF500001FF
:1048C800CB6F0001CB510001C9250001C36F000E59
:1048D8000001CA210001C46F12000001C34BC42BA0
:1048E8000001C54BC62B0001C707D8A0C8070001A7
:1048F800C729BAE10001C829D8A4B6D7000E00011B
:10490800C46F000EC36F1200000E0001956F000EF9
:104918000001966F020E2418D8A41FD020EE01F0D3
:104928001950D9261A50DA22080EDF6E20EE02F04E
:104938001950D9261A50DA22380EDE6E040EDD6EB2
:1049480019C0D9FF1AC0DAFF480EDF6E19C0D9FFA7
:104958001AC0DAFF000EDB8E12000D500401365D1E
:104968000E5004013759D8B004D036C40DF037C4FE
:104978000EF0BEEC20F020EE02F00F50D9261050B9
:10498800DA22380EDE6E040EDD6E0FC0D9FF10C0BD
:10499800DAFF480EDF6E0FC0D9FF10C0DAFF000E35
:1049A800DB8E1200336E000E346E040E356E2E5000
:1049B8002F6E306AD8902F3630363350316E326AC7
:1049C800D89031363236D890313632362F5031269B
:1049D80030503222D89031363236D890313632368D
:1049E800315034263250352234C0D9FF35C0DAFF71
:1049F800DF9E2E50D8A407D03350020D600EF3244A
:104A0800D96E000E06D03350020D0F0EF324D96E66
:104A1800000EF420DA6E34C0DEFF35C0DDFF34C08E
:104A2800D9FF35C0DAFFDF9C20EE04F03450D926D8
:104A38003550DA22DF8C1200000E0001CA6F000E1A
:104A48000001C96F000EC86FAC9A8B9C000E000164
:104A5800C46F0A0EC36F73EC2AF0AC8A000E000113
:104A6800C46F050EC36F73EC2AF0550EAD6EACA281
:104A7800FED7FC0E0001C46F7F0E0001C56F2FEC3E
:104A88002BF0000E0001C46F280EC36F73EC2AF0E0
:104A980013D065EC26F00009D8A40BD00001C84B50
:104AA800C92B890E0001C85D130E0001C959D8A091
:104AB80003D0010E0001CA6F0001CA510001D8B429
:104AC8001200E7D7000E2B6E000E216E000E0001BB
:104AD800956F000E0001966F000E00018C6F000E9E
:104AE800246E0FC0D9FF10C0DAFF7F0EDF16040E48
:104AF8000F1A0FC0D9FF10C0DAFF7F0EDF16040EA1
:104B08000F1A19C0D9FF1AC0DAFF7F0EDF16000E80
:104B18000C6E000E0E6E000E0D6E000E046E000E72
:104B2800066E000E056ED6EC1DF0000E3C6E030EF0
:104B38003B6E000E3D6E000E3E6E000E406E000E87
:104B48003F6E34EC28F0CDEC18F01200000E366EF3
:104B5800000E376E000E386E000E396E325033106C
:104B680034103510D8B42AD0010E3A6E06D0D89039
:104B780032363336343635363A2A35AEF8D7D89009
:104B8800363637363836393632502E5C33502F5851
:104B98003450305835503158D8A009D032502E5E94
:104BA80033502F5A3450305A3550315A3680D890B5
:104BB80035323432333232323A2EE1D736C02EF023
:104BC80037C02FF038C030F039C031F01200000E75
:104BD8000001C36F82B082A201D01DD0010E000176
:104BE8006627000E672368236923370E00016619BC
:104BF800000167110001681100016911D8A409D0EA
:104C0800000E0001B66F82B002D0010E19D0020E5C
:104C180017D0000E15D0140E0001B619D8A40DD067
:104C2800000E0001666F000E676F000E686F000EC1
:104C3800696F000E0001B66F02D00001B62B030E9B
:104C48000001C36F0001C3511200000E0001C96FBB
:104C5800000EC86F0001C5510001C611D8B42CD090
:104C6800010E0001C76F06D00001D890C537C637BE
:104C78000001C72B0001C6AFF7D70001D890C8378D
:104C8800C9370001C5510001C35D0001C6510001CB
:104C9800C459D8A00AD00001C5510001C35F000162
:104CA800C6510001C45B0001C8810001D890C63319
:104CB800C5330001C72FE1D7C8C0C3F0C9C0C4F0CD
:104CC8001200000E0001C46F2650D8B431D0000E77
:104CD8000001C56F5AEC29F00001C56F0D0E0001E7
:104CE800C519D8A410D02950010D640EF324D96E2B
:104CF800010EF420DA6E000EDF6E010E0001C46FA3
:104D0800000E296E15D00001C5510001D8B410D08D
:104D18000A0E0001C519D8B40BD02950010D640E34
:104D2800F324D96E010EF420DA6EC5C0DFFF292AFC
:104D38000001C4511200C70E0001D06F7E0E0001A1
:104D4800D16F000E0001D26F000E0001D36F0DEC81
:104D580027F0010EC9EC19F0010E0001C46FF40E22
:104D6800C36F73EC2AF0000EC9EC19F0010E0001B4
:104D7800C46FF40EC36F73EC2AF0010EC9EC19F07E
:104D8800010E0001C46FF40EC36F73EC2AF0000E1D
:104D9800C9EC19F0010E0001C46FF40EC36F73EC77
:104DA8002AF01200000E0001B76F4B0EB86F000E0C
:104DB800B96F000EBA6F000E0001BB6F000E000144
:104DC800BC6F080E0001BD6F000E00019E6F1A0E29
:104DD800366E010E1AEC2AF01E0E366E020E1AEC12
:104DE8002AF0000E2E6E400E2F6E050E306E400E0D
:104DF800316E020E84EC21F02EC078F02FC079F0CD
:104E0800000E0001766F000E0001776F000E236E12
:104E18001200D2C0D4F00F0E0001D46501D01200E8
:104E2800D0C0F6FFD1C0F7FFF86A070EF76403D0C9
:104E38000800F55005D0F6CFE9FFF7CFEAFFEF50AD
:104E48000009D8B41200D4C0C6F0D3C0C7F0D0C08F
:104E5800F6FFD1C0F7FFF86A070EF76403D0080021
:104E6800F55005D0F6CFE9FFF7CFEAFFEF5090EC09
:104E780022F00001D04BD12B0001D42BCCD70E0E41
:104E88000001D06F7F0E0001D16F000E0001D26FBC
:104E9800010E0001D36F0DEC27F0898C898E010E6D
:104EA8000001C46FF40EC36F73EC2AF0899C899ECD
:104EB800010E0001C46FF40EC36F73EC2AF0898CE5
:104EC800898E010E0001C46FF40EC36F73EC2AF0D3
:104ED800899C899E010E0001C46FF40EC36F73ECA8
:104EE8002AF012000001C5510001C611D8B426D01D
:104EF800010E0001C76F06D00001D890C537C6372C
:104F08000001C72B0001C6AFF7D70001C55100014A
:104F1800C35D0001C6510001C459D8A008D00001E2
:104F2800C5510001C35F0001C6510001C45B000107
:104F3800D890C633C5330001C72FE7D7C3C0C3F025
:104F4800C4C0C4F01200020E2418D8A403D018EC70
:104F580017F01200000E246E00018C51D8A41FD047
:104F680020EE01F01950D9261A50DA22080EDF6E09
:104F780020EE02F01950D9261A50DA22300EDE6ED1
:104F8800040EDD6E19C0D9FF1AC0DAFF0C0EDF6EF1
:104F980019C0D9FF1AC0DAFF000EDB8E1200000E0E
:104FA80000018C6F120002EE00F0A00EEE6AE80617
:104FB800FDE101EE00F0E60EEE6AE806FDE100EE26
:104FC80060F0630EEE6AE806FDE100EE01F02D0EDA
:104FD800EE6AE806FDE16E0EF66E590EF76E000EEB
:104FE800F86E00EEF0F010EE0BF00900F5CFEEFFD2
:104FF800E550E150FAE15B905B92000EF86E00011B
:1050080040EF18F00001C46F000E0001C66F0001E8
:10501800C3510001D8B421D0010E0001C56F05D0DD
:105028000001D890C3370001C52B0001C3AFF8D7E2
:105038000001D890C6370001C3510001C45DD8A053
:1050480006D00001C3510001C45F0001C681000100
:10505800D890C3330001C52FEBD70001C651120009
:1050680006D062EC28F012003CEC23F012003BC0A2
:1050780041F03CC042F04250000AD8B404D07F0A44
:10508800D8A4120018D04150010AD8B4EAD7030AAC
:10509800D8B41200010AD8B4E7D7060AD8B4120067
:1050A800770AD8B41200010AD8B41200070AD8B493
:1050B8001200010A12004150FF0A1200D6EC26F035
:1050C800000E0001BB6F080E0001BD6F000E00014D
:1050D800BC6F000E0001B76F4B0EB86F000EB96FB2
:1050E800000EBA6F38EC2AF0000E3A6E3F0E3A64A2
:1050F80001D00CD03A50010D240EF324D96E010EC4
:10510800F420DA6E000EDF6E3A2AF0D7000E1E6E1B
:10511800000E1D6E1200D4C1B7F0D5C1B8F0D6C1CB
:10512800B9F0D7C1BAF0000E2E6E1B0E2F6EB70E57
:10513800306E000E316EB7C032F0B8C033F0B9C06F
:1051480034F0BAC035F0AAEC25F0FF0E2E243B6EE1
:10515800FF0E2F203C6EFF0E30203D6EFF0E3120DB
:105168003E6E3BC0AFFF3CC0B0FF38EC2AF01200E7
:1051780006D00001C34BC42B0001C54BC62BC3C0CE
:10518800D9FFC4C0DAFFDF500001C76FC5C0F6FF02
:10519800C6C0F7FF0800F55000080001C725000148
:1051A800C86F0001C851D8A407D0C3C0D9FFC4C074
:1051B800DAFFDF50D8A4DDD70001C8510001C36F62
:1051C800C46BC3BFC40712009280928292849286F5
:1051D8009298929A929C929E93909392939493967B
:1051E800939A948094829484949C948E8988899AC2
:1051F800899C899E8A948A908A9A8B948B9C0F01A9
:105208005B910F015B830F015B850F015B870F01CA
:105218005D9F0F015D9D1200000E0001C36F3F0EE0
:105228000001C36501D00ED00001C351010D000E6D
:10523800F324D96E020EF420DA6E000EDF6E000140
:10524800C32BEDD7000E0001A46F000E0001A56F5F
:10525800000E266E9D98000E286E000E0001A66FA7
:10526800400E276E12000001C76FC7C0C5F00001CD
:10527800C547C547C2500001C519830BC519C26E81
:10528800C280140EE82EFED7C282C2B2FED7C45026
:105298000001C66FC56BC3500001C5250001C36F6F
:1052A800000E0001C6210001C46F1200000E0001AB
:1052B800C36F01D0898E2650D8B4FCD79D9A0001BF
:1052C800A551010D000EF324D96E020EF420DA6EFA
:1052D800DF500001C36F0001A52B3F0E0001A5653B
:1052E80003D0000E0001A56F26069D8A0001C35158
:1052F800120039EC22F0000E0001C46F140EC36FC7
:1053080073EC2AF04DEC19F026EC2CF0000E00019D
:10531800C46F140EC36F73EC2AF09FEC26F043ECB5
:1053280027F0BCEC1AF0000E0001C46F140EC36F16
:1053380073EC2AF012006AA01DD017C0D9FF18C05C
:10534800DAFF800EDE18D8A414D00FC0D9FF10C021
:10535800DAFF840EDE18D8A40CD017C0D9FF18C005
:10536800DAFF0C0EDF6E17C0D9FF18C0DAFF000E87
:10537800DB8E6A90659A12000001C46F000EF2BEBF
:10538800010E0001C56FC4C0A9FFC3C0A8FFA69E37
:10539800A69CA684F29E550EA76EAA0EA76EA6829C
:1053A800A6B2FED7A6940001C5B102D0F29E01D0E4
:1053B800F28E12000001C36F2750D8B4FDD79DB8F4
:1053C80003D0C3C0ADFF12D09D982850010D400EE8
:1053D800F324D96E020EF420DA6EC3C0DFFF282A48
:1053E8003F0E286402D0000E286E27069D88120002
:1053F8009D9A9D98480EB86E900EAB6E260EAC6EB8
:10540800D00EAF6E000EB06E000E286E000E0001BA
:10541800A66F400E276E000E0001A46F000E00015B
:10542800A56F000E266E9D8AAB881200396E36A4D1
:1054380005D0000E2E6E3950D6EC24F036A205D0D9
:10544800010E2E6E3950D6EC24F03950010D6A0E3B
:10545800F324376E0F0EF420386E37C0D9FF38C0EA
:10546800DAFF36C0DFFF12009D9A9D98480EB86E8D
:10547800900EAB6E260EAC6ED00EAF6E000EB06EF8
:10548800000E286E000E0001A66F400E276E000E5B
:105498000001A46F000E0001A56F000E266E9D8A04
:1054A800AB8812000001C36F0001C3510F0B00014C
:1054B800C36F0A0E0001C36104D00001C351300F4D
:1054C8001200090E0001C36508D0100E0001C36167
:1054D80004D00001C351370F1200000E1200000E55
:1054E8000001C76F000EC66F0CD0100E0001C56F0B
:1054F800940EE82EFED7C52FFCD700D00001C64B6E
:10550800C72B0001C3510001C65D0001C451000151
:10551800C759D8B01200E9D7000ECD6E000ECC6E78
:10552800D00ECF6E200ECE6ECE50CFCFC3F000017E
:10553800C46BC3C0C4F00001C36B0001C3111B6E70
:105548000001C4511C6E9E909D80E6EC2CF0120068
:10555800400E276016D00001A651010D400EF3241D
:10556800D96E020EF420DA6EDF50AD6E0001A62B64
:105578003F0E0001A66503D0000E0001A66F272A82
:1055880012009D981200ABA203D0AB98AB88120012
:105598000001A451010D000EF324D96E020EF4206F
:1055A800DA6EAECFDFFF0001A42B3F0E0001A46529
:1055B80003D0000E0001A46F262A1200C3C0C9F050
:1055C800C4C0CAF009D0C9C0D9FFCAC0DAFFC5C073
:1055D800DFFF0001C94BCA2B0001C707D8A0C807C5
:1055E8000001C729F0E10001C829D8B41200EBD79F
:1055F80000019751D8A41200000E606E000E646E70
:10560800160E626E9F0E666E7B0E646ED08EA5843B
:10561800A384F28E01D0608660A6FDD7010E00013A
:10562800976F12000001CA6F060E0001CA2500011B
:10563800C36F0001C46BFF0EC423000E0001C66FC8
:10564800050EC56F29EC26F00001C3510001CB6F90
:105658000001CB5112000BD0C4C0F6FFC5C0F7FF44
:105668000800F550DEEC29F00001C44BC52BC4C07E
:10567800F6FFC5C0F7FF0800F5500009D8A4ECD71D
:10568800AAEC2CF01200000E0001946F000E3C6E84
:10569800740E3B6E000E3D6E000E3E6E000E406EA8
:1056A800000E3F6E34EC28F06092649401D065944B
:1056B80065A41200FCD72EC034F02FC035F008D0F6
:1056C80034C0D9FF35C0DAFF30C0DFFF344A352A8D
:1056D8003206D8A033063228F3E13328D8B41200B2
:1056E800EFD7648465986082010E0001946F000E04
:1056F8003C6E750E3B6E000E3D6E000E3E6E000E4B
:10570800406E000E3F6E34EC28F01200B40E00011B
:10571800C46F790E0001C56F2FEC2BF09DB8FED732
:10572800FA0E0001C66F580EE82EFED7C62FFCD71A
:1057380000D012000001D06F000E0001D16F0F0ED3
:105748000001D16501D01200D1C0C6F0D0C0C7F0A9
:10575800200E90EC22F00001D12BF1D7939493986E
:10576800939AB1EC1EF0000E0AEC2CF08B0E00019F
:10577800C36F750E0001C46F40EC2CF026EC2CF0C2
:1057880012000001C36F0001C3A303D00001824BC4
:10579800832B0001C3A702D00001B32B0001C3A9CA
:1057A80012000001AA2B1200A3942350D8A40BD0F6
:1057B800C3C073F0C4C074F0C5C09FF0010E0001EF
:1057C8009D6F010E236EA384120056EC2CF0E8ECBA
:1057D80028F088EC2CF090EC2AF06CEC2CF0FCEC27
:1057E80029F033EC2CF091EC2CF012000001C56F7D
:1057F8008A980001C5390F0B1009A2EC2CF00001A2
:10580800C5510F0BA2EC2CF08A8812000001C56F5D
:105818000001C551A60F0001C56F8A980001C55146
:10582800A2EC2CF08A8812000001C56F0001C55156
:10583800B0090001C56F8A980001C551A2EC2CF08F
:105848008A881200000E9EEC2BF0010E9EEC2BF0C5
:10585800020E9EEC2BF0030E9EEC2BF01200A00E15
:105868007D6E010EC26E080EC16E8E0EC06E000EE9
:10587800C36E000EC46E12000001C3510001C411B2
:10588800D8B41200C3C0F0F0C4C0F1F01200000197
:10589800C56F8A980001C5510008AF0FA2EC2CF023
:1058A8008A881200800E9B6E700ED36E100ED26E18
:1058B800D2AEFED7900EB56E12000001C36FC3C002
:1058C800A9FFA69CA69EA68000F000F0A850120092
:1058D8007A0EBA6E9B0EBB6E000EBC6E9E92E4EC06
:1058E8002CF01200630E0001C46F790E0001C56F21
:1058F8002FEC2BF012000001C36FC69EC3C0C9FF76
:10590800C7A0FED7C9501200000EC76E210EC66E82
:10591800000EC86EC688C79C1200A09C9C0E986E8C
:105928009A8A9A929A96A19CA09C12000001C46F30
:105938008A8A0001C4517FEC2CF012000001C46F68
:105948008A9A0001C4517FEC2CF012000D0EDEEC97
:1059580029F00A0EDEEC29F012009E901C50CF6E42
:105968001BC0CEFF12008B750A020201010103035E
:105978000300BCCFC3F00001C35112000001C36F84
:10598800C3C0F5F012000001C36FC3C0B5F0120028
:105998000001C36FC3C0F7F01200000E00019C6F36
:1059A8001200010E0001AF6F12000001F551120044
:1059B800010E2A6E120000019C8112002A5012006A
:0C59C800BA841200CD801200A19C1200D5
:10758200004879CE7802798B780000000000000074
:10759200000000005F000000000000030003000084
:1075A20000643C26643C2624002649497F4949322E
:1075B20000422512082452210020504E55225828FC
:1075C20000000000030000000000001C2241000037
:1075D2000000000041221C00000015150E0E1515BA
:1075E200000008083E0808000000000050300000BB
:1075F2000000080808080800000000004000000021
:10760200004020100804020100003E4141413E00BA
:10761200000000417F4000000000426151496E00BD
:10762200000022414949360000001814127F100060
:10763200000027494949710000003C4A494870004E
:1076420000004321110D030000003649494936006C
:107652000000060949291E00000000001200000077
:107662000000000052300000000000081414220044
:10767200000014141414141400000022141408003E
:107682000000020159050200003E415D554D512E98
